:020000040800F2
:10000000A8CF0120FD660008ED040008EF040008F9
:10001000F3040008F7040008FB04000800000000D7
:100020000000000000000000000000000F67000852
:10003000FF0400080000000031E80108519B00089F
:100040001767000817670008176700081767000898
:100050001767000817670008176700081767000888
:100060001767000817670008176700081767000878
:100070001767000817670008176700081767000868
:100080001767000817670008176700081767000858
:100090001767000817670008176700081767000848
:1000A0001767000817670008176700081767000838
:1000B00017670008590E000825A4000817670008F4
:1000C0001767000817670008176700081767000818
:1000D00017670008239D00081767000817670008C6
:1000E00017670008176700081767000817670008F8
:1000F00017670008176700081767000817670008E8
:100100001767000817670008170F0008176700082F
:1001100017670008176700081767000817670008C7
:1001200017670008176700081767000817670008B7
:1001300017670008375E0008176700081767000890
:100140001767000817670008176700081767000897
:100150001767000817670008176700081767000887
:100160001767000817670008176700081767000877
:100170001767000817670008176700081767000867
:10018000176700081767000800F002F800F076F81B
:100190000AA090E8000C82448344AAF10107DA45E2
:1001A00001D100F06BF8AFF2090EBAE80F0013F0BE
:1001B000010F18BFFB1A43F001031847E0100200BB
:1001C000001102000A444FF0000C10F8013B13F03C
:1001D000070408BF10F8014B1D1108BF10F8015BA0
:1001E000641E05D010F8016B641E01F8016BF9D193
:1001F00013F0080F1EBF10F8014BAD1C0C1B09D1EA
:100200006D1E58BF01F801CBFAD505E014F8016B5B
:1002100001F8016B6D1EF9D59142D6D370470000ED
:100220000023002400250026103A28BF78C1FBD8FF
:10023000520728BF30C148BF0B60704764291EF0C9
:10024000C78475291EF0C48478291EF0FD846329B3
:100250001EF0938773291EF09887002070471FB502
:100260001FF06AF91EF002FF0400002000211FF0B9
:100270000FF8401C60601FBD10B510BD1EF0D6FF0A
:100280001146FFF7ECFF00F03EF81EF0F4FF03B458
:10029000FFF7F2FF03BC09F0E1FC000070B5044673
:1002A00000BF1BF0D1FD1EF09BFA054606216548F4
:1002B0001CF0EAFC64490860062164481CF0E4FC78
:1002C000634908600A2163481CF0DEFC624908604B
:1002D0000A2162481CF0D8FC614908600AF0B4FFAA
:1002E0001223604A002160481DF027FA13235F4A59
:1002F00000215F481DF021FAFF201DF0A2FC2846D6
:100300001EF072FA70BD1CB5A82009F02DFC4FF448
:10031000A06006F013FA4FF4E13009F0ACFC554848
:1003200041685420884700F033FD00F0AFFC01F035
:100330002CFD05F06FFE532140F2F31006F088F912
:1003400006F00CF919E04CA010211423C822CDE9C5
:1003500000101E21084605F05FFCFA2009F054FC4D
:100360004AA010211423C822CDE900101E210846FE
:1003700005F052FCFA2009F047FC06F0CAF8002804
:10038000E1D147A010211423C822CDE900101E217D
:10039000084605F041FC00201EF09DFA01201EF0E9
:1003A0009AFA02201EF097FA4FF4784041490880EB
:1003B00041A010211423C822CDE900101E210846B7
:1003C00005F02AFC1BF002FC1AE03DA010211423CA
:1003D000C822CDE900106E211E2005F01DFC4FF44F
:1003E000FA7009F011FC4FF6FF709623E6226E2199
:1003F00000901E2005F078F94FF4FA7009F004FC23
:100400000AF007FE0028E0D132A010211423C822F0
:10041000CDE900106E211E2005F0FEFB1423324AA8
:100420000021AFF287101DF088F91BF0F5FC0020C9
:100430001CBD06E04FF4FA730022114610461DF071
:10044000F9FCF7E7980800201C0000208008002035
:1004500018000020100E0020F0010020E80D002000
:10046000EC0100207C0600200D0700087C0800201D
:1004700047090008B8000020444854313120696E13
:100480006974206572726F72210000004448543113
:100490003120696E6974696E672E2E2E2E00000061
:1004A000202020202020202020202020202020204C
:1004B000200000002C00002049486F6D65000000FE
:1004C0004C77697020496E6974206661696C656457
:1004D000210000004C77697020496E6974205375C3
:1004E00063636573732100007C050020704700BFC3
:1004F000FEE700BFFEE700BFFEE700BFFEE7704774
:100500000CB50020019000907548006840F48030E0
:100510007349086000BF7248006800F40030009022
:100520000198401C0190009818B90198B0F5A04FAF
:10053000F1D16B48006810F4003F02D00120009018
:1005400001E0002000900098012845D16448403027
:10055000006840F08050624940310860614800689E
:1005600040F440405F4908605D48083000685C49DD
:10057000083108600846006840F4004008600846FA
:10058000006840F4A05008605748091F0860081F21
:10059000006840F08070091F086000BF5048006884
:1005A00010F0007FFAD040F20570504908604C48C6
:1005B0000830006820F00300494908310860084607
:1005C000006840F00200086000BF4548083000683D
:1005D00000F00C000828F8D10CBD10B544480068A4
:1005E00040F47000424908603D48006840F0010056
:1005F0003B49086000203A490831086038480068E3
:100600003C490840364908603B48091D0860081FFE
:10061000006820F48020091F0860002030490C3158
:100620000860FFF76DFF4FF00060314980390860C6
:1006300010BD70B500200022022300240221284DA5
:1006400008352D6805F00C0020B1042806D00828D4
:1006500034D107E0294D2A4E356033E0294D284E2C
:1006600035602FE01E4D2D1D2D68C5F380541C4DA7
:100670002D1D2D6805F03F0154B1224DB5FBF1F55C
:10068000174E361D3668C6F3881605FB06F209E0DC
:100690001A4DB5FBF1F5124E361D3668C6F38816B5
:1006A00005FB06F20E4D2D1D2D68C5F301456D1C91
:1006B0006B00B2FBF3F5124E356003E00F4D104EA8
:1006C000356000BF00BF064D08352D68C5F3031522
:1006D0000D4E705D0A4D2D68C540094E356070BDE8
:1006E000003802400070004008544007003C0240BF
:1006F00088ED00E0FFFFF6FE103000240024F40037
:100700000000002000127A00040000208AB00025BA
:100710000026002716E1FDA01EF0E8F9FE4800685B
:1007200008B9012000E00020FB490860FB48006890
:10073000012811D105F026FF0A3000EB8004B4F542
:10074000FA7F05D34FF4FA71F54806F0C8FF03E0CD
:100750002146F34806F0C3FF09AA4FF4C871F148D7
:1007600000681CF065FB05469DF8240028B14B226B
:10077000EDA1F5A01EF0BAF9E4E0FBA128461EF0B9
:1007800031FC00286DD109AA4FF4FA71E5480068E0
:100790001CF04EFB06469DF8240028B15522E2A12C
:1007A000E9A01EF0A3F9CDE0F1A130461EF01AFC3D
:1007B000002857D1314601201EF043F909AA4FF411
:1007C000FA71D84800681CF033FB07469DF82400F6
:1007D00028B16022D4A1DCA01EF088F9B2E0E5A126
:1007E00038461EF0FFFB0028CCD10021CC4806F093
:1007F00076FF072101201EF034F98046DAA1404639
:100800001EF080F94146DC4800681CF0D8FB20B19E
:100810006B22C5A1D9A01EF069F94A2101201EF062
:1008200020F980461E201F21D2A2CDE90412CDE975
:10083000061001202122CDE900120B460322CDE94A
:100840000210D4A140461EF05DF94146CA48006836
:100850001CF0B5FB002862D07622B3A1C7A01EF021
:1008600045F95CE0D3A130461EF0BCFB002856D110
:10087000314601201EF0E5F809AA4FF4FA71A948A3
:1008800000681CF0D5FA07469DF8240028B18222A2
:10089000A5A1ADA01EF02AF954E0B6A138461EF07D
:1008A000A1FB00283BD14FF4FA719D4806F017FFD9
:1008B000072101201EF0D5F88046ABA140461EF06E
:1008C00021F94146AC4800681CF079FB20B18D222B
:1008D00095A1AAA01EF00AF94A2101201EF0C1F834
:1008E00080461E201F21A3A2CDE90412CDE90610E7
:1008F00002202122CDE900120B460322CDE902108D
:10090000A4A140461EF0FEF841469B4800681CF03A
:1009100056FB20B1982284A198A01EF0E7F8294642
:1009200001201EF08EF8314601201EF08AF839466B
:1009300001201EF086F80A230022114610461DF001
:1009400079FA00BFE7E68CB000250026002499E183
:1009500009AA0021984800681CF06AFA05469DF82B
:10096000240028B1BE2270A177A01EF0BFF889E153
:1009700009AA4FF4FA71904800681CF059FA06462B
:100980009DF8240048B19DF824108CA01EF0AEF80C
:10099000294601201EF055F874E109AA4FF4FA71B6
:1009A000854800681CF044FA04469DF8240068B1AC
:1009B000CF225DA188A01EF099F8294601201EF0E3
:1009C00040F8314601201EF03CF85BE1314689A039
:1009D0001EF08CF821468AA01EF088F862A12846F5
:1009E0001EF000FB00284CD188A130461EF0FAFA18
:1009F000002847D187A120461EF0F4FA0028F2D142
:100A00000AA90BA805F059FD012800D13AE10721F8
:100A100001201EF026F8074653A138461EF072F852
:100A20003946554800681CF0CAFA20B1E5223EA1BB
:100A300052A01EF05BF84A2101201EF012F8074672
:100A40001E201F219DF82C20CDE90412CDE90610AF
:100A5000084622211F221346CDE90204CDE90021D8
:100A600003226EA138461EF04DF839464248006810
:100A70001CF0A5FA002804D0F3222BA13FA01EF001
:100A800035F8ECE06DA130461EF0ACFA0028F8D144
:100A900060A120461EF0A6FA0028F2D10AA90BA8F0
:100AA00005F00BFD012800D1ECE0072101201DF02D
:100AB000D8FF07462CA138461EF024F839462E48A8
:100AC00000681CF07CFA28B140F2051216A12BA098
:100AD0001EF00CF84A2101201DF0C3FF07461E201E
:100AE0001F219DF82820CDE90412CDE90610084603
:100AF00023211F221346CDE90204CDE90021032260
:100B000046A138461DF0FEFF39469BE06C65642027
:100B10007461736B210D0A00A88242421400002008
:100B200000200040180000202E2E5C534F465457E2
:100B30004152455C69686F6D655F66756E63746987
:100B40006F6E2E63000000004C4544205441534B0F
:100B5000204F535150656E64206572726F7220256C
:100B6000732025640A000000636C69656E740000E0
:100B70004F4E000030000000F00100204F53515054
:100B80006F7374204552524F522025732025640AFA
:100B90000000000025632563393735353539353494
:100BA00039682563256325632563256325732563DC
:100BB000256300004F4646001C0000206D7367311E
:100BC000204F535150656E64206572726F72203AE7
:100BD0002564200D0A0000006D736732204F5351C9
:100BE00050656E64206572726F72202573202564D3
:100BF0000A0000006D7367313A25730A0000000097
:100C00006D7367323A25730A0000000054454D5059
:100C100000000000313030303000000025632563D3
:100C200039373535353935343968256325632563DA
:100C300025732563256325632563000048554D49C9
:100C400000000000104800681CF0B9F938B140F20B
:100C50001312AFF22C11AFF2DC001DF047FF294652
:100C600001201DF0EEFE314601201DF0EAFE214676
:100C700001201DF0E6FE0A230022114610461DF059
:100C8000D9F800BF64E60000F00100201CB5012186
:100C9000112006F0E9F81C20009000208DF80400D7
:100CA00003208DF8050001208DF8070069463548BE
:100CB00005F03CFE0120009002208DF807006946F7
:100CC000314805F033FE1CBD10B5044614B10120B7
:100CD0002E4908702D480078002837D01021294867
:100CE00005F086FE78B10821264805F081FE50B156
:100CF0000421244805F07CFE28B10121224805F09A
:100D000077FE012822D10A2008F07EFF00201F492B
:100D1000087010211B4805F06BFE08B9012010BDBA
:100D20000821184805F064FE08B90220F7E70421FD
:100D3000144805F05DFE08B90320F0E701211248D0
:100D400005F056FE01281BD10420E8E710210D48CC
:100D500005F04EFE012813D108210A4805F048FE8F
:100D600001280DD10421074805F042FE012807D1D2
:100D70000121054805F03CFE10B901200349087027
:100D80000020CCE7001002400000024020000020BC
:100D90001CB50121222006F067F84FF48C4000902A
:100DA00001208DF8040000208DF8060003208DF846
:100DB000050001208DF8070069460F4805F0B6FDD3
:100DC0004FF48C410C4805F02DFE022000900120CC
:100DD0008DF8040000208DF8060003208DF8050032
:100DE00001208DF807006946044805F09FFD0221A7
:100DF000024805F019FE1CBD001402400004024028
:100E00007FB505460C460121022006F076F80295D2
:100E1000ADF804400020ADF80600ADF80C0001A9C3
:100E20006D4806F06EFA012211466B4806F00AFF83
:100E30000121694806F0EEFA1D208DF8000001201E
:100E40008DF8010003208DF8020001208DF80300C9
:100E5000684605F078FC7FBD10B501215E4806F0BC
:100E600008FF01215C4806F015FF10BD30B587B0C2
:100E700004460D460121082006F03FF801210846EE
:100E800005F0F2FF0120059002208DF818000320E4
:100E90008DF8190000208DF81A0002208DF81B0033
:100EA00005A94E4805F042FD022200214B4805F0FD
:100EB000C8FDADF808500020ADF80A000394ADF865
:100EC000100002A9464806F01CFA00204549088097
:100ED0004880012088800020C8800881404806F0B2
:100EE000E7FD012203213E4806F0ACFE01213C480B
:100EF00006F090FA32208DF8040002208DF80500EB
:100F000000208DF8060001208DF8070001A805F0EB
:100F10001AFC07B030BD10B53348007810F0800FD0
:100F200054D101212E4806F0A4FED0B12E480078FD
:100F300010F0400F15D02C48007800F03F003F28FB
:100F40000AD12948007840F08000274908704FF006
:100F5000FF302649086004E023480078401C2249FD
:100F6000087002211E4806F084FE78B31E480078FF
:100F700010F0400F0FD01C48007840F080001A4954
:100F80000870174806F012FE18490860002114483E
:100F900006F05BFC1AE00020134908701349086052
:100FA0001148007840F040000F49087000210C48BB
:100FB00006F030FA00210A4806F0ECF90221084850
:100FC00006F043FC0121064806F024FA03210448F8
:100FD00006F060FE10BD000000040040000002406A
:100FE000000C0040B0080020240000202800002051
:100FF00001B5BDF800000090BDF80000F749088079
:1010000008BD01B5BDF800000090BDF80000F4492E
:10101000088008BD08B5F24800880090BDF80000BF
:1010200008BDEE4A10804FF0D842A2F880107047F9
:1010300010B504462046FFF7DBFF052008F0B9FD98
:10104000FFF7E8FF10BDE7480089E44908807047D2
:10105000E3490880704730B5014601F01F04C1F331
:101060004513CA0AE50205EB43151544A8B230BD85
:1010700000BF0100A0F10102D0B2FAD1704730B533
:1010800004460D46D7488088A0F51341413905D064
:10109000D4488088A0F5A641103914D1D149488997
:1010A000FFF7A6FF2012FFF7ACFFE0B2FFF7A9FFA2
:1010B000CC498889FFF79CFF2812FFF7A2FFE8B20E
:1010C000FFF79FFFABE0C7488088A0F5D041043907
:1010D0001DD1C4488079012804D1C2480088401E2F
:1010E000001B84B2BF494889FFF782FF2012FFF737
:1010F00088FFE0B2FFF785FFBA498889FFF778FFDC
:101100002812FFF77EFFE8B2FFF77BFF87E0B548C4
:101110008088A0F5C851633947D1B2488079A8B911
:10112000B0480088401E001B84B2AE494889FFF7D2
:101130005FFF0020FFF765FF0020FFF762FF20122E
:10114000FFF75FFFE0B2FFF75CFF16E0A5494889B3
:10115000FFF74EFF2012FFF754FFE0B2FFF751FFF9
:10116000A0490988491EC1F30F20FFF74AFF9D4996
:101170000978491EC8B2FFF744FF9A498889FFF7EA
:1011800037FF2812FFF73DFFE8B2FFF73AFF954916
:101190004988491EC1F30F20FFF733FF9149897831
:1011A000491EC8B2FFF72DFF39E08E488088A0F5B0
:1011B000AA41103920D18B494889FFF719FF201225
:1011C000FFF71FFF87494989491C88B2FFF710FFC5
:1011D000E0B2FFF716FF83498889FFF709FF28125D
:1011E000FFF70FFF7F498989491C88B2FFF700FF8D
:1011F000E8B2FFF706FF12E07A488079012804D1AF
:1012000078480088401E001B84B2764948892146F0
:10121000FFF707FF734988892946FFF702FF30BDB2
:101220002DE9F04105460E4600240027A0466D48F2
:101230000088A84203DD6B484088B04202DC0020F1
:10124000BDE8F08131462846FFF719FF65488088E0
:10125000A0F51341413911D062488088A0F5D041F2
:1012600004390BD05F488088A0F5A641103905D01D
:101270005C488088A0F5C851633903D12E20FFF760
:10128000B7FE0DE057488088A0F5AA41103904D177
:101290004FF43850FFF7ACFE02E02220FFF7A8FE23
:1012A00050488088A0F51341203902D10220FFF771
:1012B000DFFEFFF7AFFE04464A488088A0F5C8511C
:1012C000633901D12046BBE70220FFF7D1FEFFF7CB
:1012D000A1FE044643488088A0F5134141390BD054
:1012E00040488088A0F5A641103905D03D48808847
:1012F000A0F5AA4110390AD10220FFF7B9FEFFF785
:1013000089FE8046E7B24FF6FF7000EA07273548AE
:101310008088A0F51341253917D032488088A0F580
:101320008A41353911D02F488088A0F58A4131395A
:101330000BD02C488088A0F53541053905D02948C7
:101340008088A0F54541053901D1204678E7254838
:101350008088A0F5134141390BD022488088A0F540
:10136000A641103905D01F488088A0F5AA41103940
:1013700007D1E012C002B91240EA411040EAE82069
:101380005EE72046FFF767FE5AE700B515488088FC
:10139000A0F51341413911D012488088A0F5D04101
:1013A00004390BD00F488088A0F5A641103905D02C
:1013B0000C488088A0F5C851633903D12920FFF774
:1013C00017FE16E007488088A0F5AA4110390BD116
:1013D0004FF42450FFF70CFE0BE000007E00006C81
:1013E0008000006CBA08002040F273110720FFF75C
:1013F00018FE00BD00B5FD488088A0F513414139B5
:1014000011D0FA488088A0F5D04104390BD0F748B4
:101410008088A0F5A641103905D0F4488088A0F551
:10142000C851633903D12820FFF7E2FD0EE0EF48F1
:101430008088A0F5AA41103904D14FF42050FFF75D
:10144000D7FD03E000210720FFF7EBFD00BDF0B55D
:10145000054600240027E548807901280BD1E348A0
:101460008088A0F5D041043905D0E0488088A0F5F7
:10147000C851633908D1DD488079F0B9DB488088EC
:10148000A0F5C851633918D1082D15D2DFE805F051
:101490000406080A0C0E101206250DE007250BE0C5
:1014A000042509E0052507E0012505E0002503E006
:1014B000032501E0022500BF00BFCC488088A0F5CD
:1014C0001341413917D0C9488088A0F5D04104396B
:1014D00011D0C6488088A0F5A64110390BD0C3486A
:1014E0008088A0F5AA41103905D0C0488088A0F5B1
:1014F000C85163397ED1082D1CD2DFE805F00406FF
:10150000090C0F12151800BF14E044F0800411E01C
:1015100044F040040EE044F0C0040BE044F020042A
:1015200008E044F0600405E044F0A00402E044F068
:10153000E00400BF00BFAD488088A0F5AA41103983
:1015400002D14FF4585700E03627A8488088A0F50C
:10155000A64110390DD0A5488088A0F5AA411039C0
:1015600007D0A2488088A0F5C851633901D044F063
:1015700008049E488088A0F5D041043901D144F088
:10158000020421463846FFF74CFD98488088A0F5B4
:10159000C85163391DD014F0200F0DD09348008836
:1015A00092494988884214DA9048068840888F49D1
:1015B0000880084646800CE08C4800888B494988A2
:1015C000884206DD894806884088884908800846A0
:1015D000468086488088A0F5AA41103954D18349B5
:1015E0004889FFF705FD0020FFF70BFD7F4949897A
:1015F000491C00E077E088B2FFF7FAFC0020FFF713
:1016000000FD7A494989891C88B2FFF7F1FC7749C6
:101610000988491EC1F30F20FFF7F3FC734949897C
:10162000C91C88B2FFF7E4FC70490978491EC8B2AA
:10163000FFF7E7FC6D498889FFF7DAFC0020FFF728
:10164000E0FC6A498989491C88B2FFF7D1FC002077
:10165000FFF7D7FC65498989891C88B2FFF7C8FC68
:1016600062494988491EC1F30F20FFF7CAFC5F4950
:101670008989C91C88B2FFF7BBFC5C498978491E7F
:10168000C8B2FFF7BEFC55E058494889FFF7B0FCE7
:101690000020FFF7B6FC0020FFF7B3FC5349098890
:1016A000491EC1F30F20FFF7ACFC50490978491ED1
:1016B000C8B2FFF7A6FC4D498889FFF799FC0020C6
:1016C000FFF79FFC0020FFF79CFC48494988491E12
:1016D000C1F30F20FFF795FC44498978491EC8B231
:1016E000FFF78FFC26E0082D1CD2DFE805F0040789
:1016F0000A0D0F12151844F0300413E044F01004E2
:1017000010E044F020040DE000BF0BE044F038048A
:1017100008E044F0280405E044F0180402E044F036
:10172000080400BF00BF032744F480542146384614
:10173000FFF777FCF0BD30B504460D46294620463C
:10174000FFF79DFCFFF77FFC2948008829490880A6
:1017500030BD70B504460D46164624488088A0F575
:101760001341413905D021488088A0F5A6411039A0
:1017700014D11E494889FFF73BFC2012FFF741FCBA
:10178000E0B2FFF73EFC19498889FFF731FC2812C7
:10179000FFF737FCE8B2FFF734FC93E0134880888A
:1017A000A0F5AA41103927D110494889FFF720FC3C
:1017B0002012FFF726FC0D494989491C88B2FFF722
:1017C00017FCE0B2FFF71DFC08498889FFF710FC01
:1017D0002812FFF716FC05498989491C88B2FFF7D2
:1017E00007FCE8B2FFF70DFC6CE00000BA0800202F
:1017F0002C0000208000006CFE488088A0F5C851B5
:10180000633928D1FB48807920B9FA480088401E06
:10181000001B84B2F7494889FFF7EAFB2012FFF763
:10182000F0FBE0B2FFF7EDFB2012FFF7EAFBE0B2BE
:10183000FFF7E7FBEF498889FFF7DAFB2812FFF78C
:10184000E0FBE8B2FFF7DDFB2812FFF7DAFBE8B2B6
:10185000FFF7D7FB36E0E7488088A0F5D041043990
:101860001DD1E4488079012804D1E2480088401E57
:10187000001B84B2DF494889FFF7BAFB2012FFF74B
:10188000C0FBE0B2FFF7BDFBDA498889FFF7B0FB88
:101890002812FFF7B6FBE8B2FFF7B3FB12E0D5481A
:1018A0008079012804D1D3480088401E001B84B2EF
:1018B000D04948892146FFF7B4FBCE49888929469B
:1018C000FFF7AFFBCB480089CB4908804FF0D840E9
:1018D000A0F8806070BD70B52DED048B0446BE206D
:1018E000FFF786FB0520FFF78CFB20461DF013FD5C
:1018F00041EC100BB0EE409AF0EE609A9FEDBF0BFA
:1019000053EC102B51EC190B1DF018FD41EC100B92
:10191000B0EE408AF0EE608A51EC180B1DF0CEFC60
:1019200085B22846FFF76DFB0120FFF76AFBFF2019
:10193000FFF767FB0020FFF764FB0020FFF761FB68
:10194000BDEC048B70BD10B50446002C66D1A949CE
:101950008871F02008804FF4A07048800846808885
:10196000A0F5134141390BD0A2488088A0F5D041A1
:10197000043905D09F488088A0F5A64110391AD1B6
:101980002C209C4908812A2048812B2088810846E8
:101990008088A0F5D041043905D096488088A0F50C
:1019A000A641103906D14FF4A070924908804FF437
:1019B000F0704880A1E08F488088A0F5AA411039D6
:1019C00010D14FF430508B4908814FF42850488192
:1019D0004FF42C5088814FF4F07008804FF4487019
:1019E00048808AE083488088A0F5C85163390DD1CA
:1019F0002C20804908812B2048812A2088814FF49F
:101A0000F07008804FF44870488076E022207949D1
:101A1000088120204881212088816EE001207549BD
:101A200088714FF4A0700880F020488008468088B4
:101A3000A0F51341413905D06E488088A0F5A64134
:101A4000103907D12C206B4908812A2048812B208E
:101A500088813FE067488088A0F5D041043907D1EC
:101A60002C20644908812B2048812A20888131E07C
:101A700060488088A0F5AA41103910D14FF4305049
:101A80005C4908814FF4285048814FF42C508881DC
:101A90004FF4487008804FF4F07048801AE05548C1
:101AA0008088A0F5C85163390DD12C205149088197
:101AB0002A2048812B2088814FF4487008804FF4F9
:101AC000F070488006E022204A49088121204881A0
:101AD0002020888147488088A0F5D041043905D06E
:101AE00044488088A0F5A641103906D14FF4F07023
:101AF000404908804FF4A07048800020FFF7A7FC01
:101B000010BD2DE9F04F86B004460D46904699462B
:101B100004EB0800401E86B205EB0900401E87B2A8
:101B200034488088A0F51341413915D03148808868
:101B3000A0F5A64110390FD02E488088A0F5D041DD
:101B4000043909D02B488079012826D1294880887A
:101B5000A0F5C851633920D126494889FFF748FAD2
:101B60002012FFF74EFAE0B2FFF74BFA3012FFF700
:101B700048FAF0B2FFF745FA1E498889FFF738FAAC
:101B80002812FFF73EFAE8B2FFF73BFA3812FFF7E8
:101B900038FAF8B2FFF735FAC1E016488088A0F5A8
:101BA000C85163393DD113480088A0EB0800001BE1
:101BB00084B205EB0900401E1FFA80F90D494889DF
:101BC000FFF716FA2012FFF71CFAE0B2FFF719FA36
:101BD00004EB0801491EC1F30F20FFF712FA04EBD2
:101BE0000801491EC8B2FFF70CFA02498889FFF7BD
:101BF000FFF907E0BA0800207E00006C66666666A2
:101C0000666604402812FFF7FCF9E8B2FFF7F9F91D
:101C10004FEA2920FFF7F5F909F0FF00FFF7F1F986
:101C20007DE0FE488088A0F5AA41103944D1FB49E7
:101C30004889FFF7DDF92012FFF7E3F9F7494989F1
:101C4000491C88B2FFF7D4F9E0B2FFF7DAF9F3499B
:101C50004989891C88B2FFF7CBF93012FFF7D1F917
:101C6000EE494989C91C88B2FFF7C2F9F0B2FFF703
:101C7000C8F9EA498889FFF7BBF92812FFF7C1F9CB
:101C8000E6498989491C88B2FFF7B2F9E8B2FFF743
:101C9000B8F9E2498989891C88B2FFF7A9F9381295
:101CA000FFF7AFF9DD498989C91C88B2FFF7A0F9B0
:101CB000F8B2FFF7A6F932E0D848807901280ED1B2
:101CC000AA46BB46D5480088801B401E80B20190C2
:101CD000D2480088001B401E80B2009003E0A2465C
:101CE000B346019500975020059051200490522052
:101CF00003905320029051460598FFF792F95946F8
:101D00000498FFF78EF901990398FFF78AF9009973
:101D10000298FFF786F929462046FFF7B0F906B08A
:101D2000BDE8F08F70B504460026BC4805884088A1
:101D30004543BA488088A0F5D041043916D1B74848
:101D40008079012812D10020B44988712A20488165
:101D50002B20888100210846FFF791F90120AF4927
:101D600088712B2048812A20888103E000210846C1
:101D7000FFF785F9FFF767F9002603E0A84804801C
:101D800006F10106AE42F9D370BD00B5A1B0002046
:101D9000209001217A2005F067F80121084605F01E
:101DA0009BF84FF400401E9001208DF87C0000202D
:101DB0008DF87E0002208DF87D0001208DF87F00D7
:101DC0001EA9984804F0B2FD4CF233701E90022018
:101DD0008DF87C0000208DF87E0003208DF87D00BA
:101DE00001208DF87F001EA98F4804F09FFD4FF65B
:101DF00080701E9002208DF87C0000208DF87E00FF
:101E000003208DF87D0001208DF87F001EA98748F2
:101E100004F08CFD4FF480501E9002208DF87C0061
:101E200000208DF87E0003208DF87D0001208DF8C4
:101E30007F001EA97E4804F079FD4FF480501E906B
:101E400002208DF87C0000208DF87E0003208DF8A4
:101E50007D0001208DF87F001EA9764804F066FD04
:101E60000C220021704804F0ECFD0C2201216E4888
:101E700004F0E7FD0C2204216B4804F0E2FD0C2283
:101E80000521694804F0DDFD0C220821664804F0B4
:101E9000D8FD0C220921644804F0D3FD0C220A214C
:101EA000614804F0CEFD0C220E215F4804F0C9FD0C
:101EB0000C220F215C4804F0C4FD0C2207215B4872
:101EC00004F0BFFD0C220821584804F0BAFD0C2292
:101ED0000921564804F0B5FD0C220A21534804F0AC
:101EE000B0FD0C220B21514804F0ABFD0C22114631
:101EF0004E4804F0A6FD0C220D214C4804F0A1FD33
:101F00000C220E21494804F09CFD0C220F21474869
:101F100004F097FD0C221146454804F092FD0C2276
:101F20001146444804F08DFD0F20089000200990D0
:101F30003C200A9000200B900C900D900E900920F0
:101F4000019000200290082003900020049005904A
:101F50000690079006200F900020109011901020FE
:101F600012900020139015901490169017904FF433
:101F700080501890002019904FF480401A90002053
:101F80001B9008A81C9001A81D900FA807F000FB4B
:101F90000121062007F084FB322007F035FE0121E5
:101FA0000020FFF73EF8322007F02EFE0020FFF75A
:101FB0003FF81A49888008468088FF280ADB0846CF
:101FC0008088A0F57F41FF3904D014488088B0F59F
:101FD000134F7DD1D320FFF70BF8FFF71BF80F4904
:101FE0008880FFF717F80D498880FFF713F80B4931
:101FF0008880084680884FF6FF7101EA0020074973
:102000008880FFF707F805498988084303498880D5
:1020100008468088A0F5134141390DE0BA08002038
:102020008000006C00040240000C024000100240DE
:1020300000140240001802404AD0BF20FEF7D8FF2B
:10204000FEF7E8FFFE498880FEF7E4FFFC49888040
:10205000FEF7E0FFFA498880FEF7DCFFF849888048
:10206000084680884FF6FF7101EA0020F449888015
:10207000FEF7D0FFF24989880843F1498880084675
:102080008088A0F5D04104397AD0D420FEF7B0FF83
:10209000FEF7C0FFEA498880FEF7BCFFE849888068
:1020A000FEF7B8FFE6498880084680884FF6FF7142
:1020B00001EA0020E2498880FEF7ACFFE049898808
:1020C0000843DF49888008468088A0F5A64100E0E3
:1020D00056E0103954D04FF45A40FEF789FFFEF70E
:1020E00099FFD74988804FF45B40FEF781FFFEF7E8
:1020F00091FFD3498880084680884FF6FF7101EA36
:102100000020CF4988804FF45C40FEF771FFFEF756
:1021100081FFCB4989880843C9498880084680885F
:10212000B0F5004F02D145F210508880C448808835
:10213000A0F5AA41103923D0A120FEF759FFFEF7E0
:1021400069FFBF498880FEF765FFBD498880084662
:1021500080884FF6FF7101EA0020B9498880FEF7B8
:1021600059FFB74989880843B5498880084680885F
:10217000A0F5AE41613903D141F66310B0498880C2
:10218000AF488088A0F51341413911D0AC48808810
:10219000A0F5A64110390BD0A9488088A0F5AA4126
:1021A000103905D0A6488088A0F5C85163391DD1E3
:1021B000A448006820F00F004FF02041C1F81C0136
:1021C0000846D0F81C0120F47060C1F81C010846D4
:1021D000D0F81C0140F00300C1F81C010846D0F8FB
:1021E0001C0140F40070C1F81C0128E0944880886C
:1021F000A0F5D041043905D091488088A0F545412B
:1022000005391CD18F48006820F00F004FF02041A5
:10221000C1F81C010846D0F81C0120F47060C1F818
:102220001C010846D0F81C0140F00A00C1F81C014E
:102230000846D0F81C0140F44060C1F81C018048F9
:10224000818881A01CF052FC7D488088A0F5134154
:1022500041397CD1CF20FEF7CBFE0020FEF7D1FE26
:10226000C120FEF7CEFE3020FEF7CBFEED20FEF7BC
:10227000BFFE6420FEF7C5FE0320FEF7C2FE12205B
:10228000FEF7BFFE8120FEF7BCFEE820FEF7B0FEA1
:102290008520FEF7B6FE1020FEF7B3FE7A20FEF78B
:1022A000B0FECB20FEF7A4FE3920FEF7AAFE2C20BC
:1022B000FEF7A7FE0020FEF7A4FE3420FEF7A1FEE5
:1022C0000220FEF79EFEF720FEF792FE2020FEF78A
:1022D00098FEEA20FEF78CFE0020FEF792FE00201A
:1022E000FEF78FFEC020FEF783FE1B20FEF789FE5F
:1022F000C120FEF77DFE0120FEF783FEC520FEF71C
:1023000077FE3020FEF77DFE3020FEF77AFEC720F4
:10231000FEF76EFEB720FEF774FE3620FEF768FE6D
:102320004820FEF76EFE3A20FEF762FE5520FEF7CB
:1023300068FEB120FEF75CFE0020FEF762FE1A2068
:10234000FEF75FFEB620FEF753FE0A2000E0A6E08F
:10235000FEF757FEA220FEF754FEF220FEF748FEDD
:102360000020FEF74EFE2620FEF742FE0120FEF77B
:1023700048FEE020FEF73CFE0F20FEF742FE2A203A
:10238000FEF73FFE2820FEF73CFE0820FEF739FE50
:102390000E20FEF736FE0820FEF733FE5420FEF72F
:1023A00030FEA920FEF72DFE4320FEF72AFE0A206C
:1023B000FEF727FE0F20FEF724FE0020FEF721FE89
:1023C0000020FEF71EFE0020FEF71BFE0020FEF799
:1023D00018FEE120FEF70CFE0020FEF712FE15208D
:1023E000FEF70FFE1720FEF70CFE0720FEF709FE92
:1023F0001120FEF706FE0620FEF703FE2B20FEF757
:1024000000FE5620FEF7FDFD3C20FEF7FAFD0520FC
:10241000FEF7F7FD1020FEF7F4FD0F20FEF7F1FDAB
:102420003F20FEF7EEFD3F20FEF7EBFD0F20FEF70D
:10243000E8FD2B20FEF7DCFD0020FEF7E2FD0BE0BF
:10244000BA0800201C0100A0204C43442049443A13
:1024500025780D0A000000000020FEF7D2FD0120C3
:10246000FEF7CFFD3F20FEF7CCFD2A20FEF7C0FD92
:102470000020FEF7C6FD0020FEF7C3FD0020FEF79A
:10248000C0FDEF20FEF7BDFD1120FEF7B1FD782065
:1024900007F0BAFB2920FEF7ABFD03F019B9FE489F
:1024A0008088A0F5D04104397ED11120FEF7A0FD2F
:1024B000142007F0A9FBD020FEF79AFD0720FEF7B5
:1024C000A0FD4220FEF79DFD1D20FEF79AFDD120C4
:1024D000FEF78EFD0020FEF794FD1A20FEF791FD19
:1024E0000920FEF78EFDD220FEF782FD0120FEF7C7
:1024F00088FD2220FEF785FDC020FEF779FD102023
:10250000FEF77FFD3B20FEF77CFD0020FEF779FD06
:102510000220FEF776FD1120FEF773FDC520FEF7C1
:1025200067FD0320FEF76DFDC820FEF761FD00206A
:10253000FEF767FD2520FEF764FD2120FEF761FD13
:102540000520FEF75EFD0020FEF75BFD0A20FEF78A
:1025500058FD6520FEF755FD2520FEF752FD77203A
:10256000FEF74FFD5020FEF74CFD0F20FEF749FD12
:102570000020FEF746FDF820FEF73AFD0120FEF7A9
:1025800040FDFE20FEF734FD0020FEF73AFD02205C
:10259000FEF737FD2020FEF72BFD3620FEF728FD45
:1025A0000820FEF72EFD00E02AE03A20FEF720FD8D
:1025B0005520FEF726FD2B20FEF71AFD0020FEF722
:1025C00020FD0020FEF71DFD0120FEF71AFD3F2033
:1025D000FEF717FD2A20FEF70BFD0020FEF711FD88
:1025E0000020FEF70EFD0120FEF70BFDDF20FEF7B9
:1025F00008FD782007F008FB2920FEF7F9FC4CE7DE
:10260000A5488088A0F5A641103940F07C87ED20D0
:10261000FEF7EEFC0120FEF7F4FCFE20FEF7F1FCD5
:10262000EE20FEF7E5FCDE20FEF7EBFC2120FEF7B6
:10263000E8FCF120FEF7DCFC0120FEF7E2FCDF20E5
:10264000FEF7D6FC1020FEF7DCFCC420FEF7D0FC21
:102650008F20FEF7D6FCC620FEF7CAFC0020FEF74E
:10266000D0FCE220FEF7CDFCE220FEF7CAFCE2201F
:10267000FEF7C7FCBF20FEF7BBFCAA20FEF7C1FC9B
:10268000B020FEF7B5FC0D20FEF7BBFC0020FEF7E6
:10269000B8FC0D20FEF7B5FC0020FEF7B2FC1120BF
:1026A000FEF7AFFC0020FEF7ACFC1920FEF7A9FCFA
:1026B0000020FEF7A6FC2120FEF7A3FC0020FEF779
:1026C000A0FC2D20FEF79DFC0020FEF79AFC3D208B
:1026D000FEF797FC0020FEF794FC5D20FEF791FCCE
:1026E0000020FEF78EFC5D20FEF78BFC0020FEF73D
:1026F00088FCB120FEF77CFC8020FEF782FC0020E5
:10270000FEF77FFC8B20FEF77CFC0020FEF779FCB7
:102710009620FEF776FC0020FEF773FCB220FEF751
:1027200067FC0020FEF76DFC0020FEF76AFC02202B
:10273000FEF767FC0020FEF764FC0320FEF761FC57
:102740000020FEF75EFCB320FEF752FC0020FEF7EF
:1027500058FC0020FEF755FC0020FEF752FC00203C
:10276000FEF74FFC0020FEF74CFC0020FEF749FC72
:102770000020FEF746FC0020FEF743FC0020FEF799
:1027800040FC0020FEF73DFC0020FEF73AFC002054
:10279000FEF737FC0020FEF734FC0020FEF731FC8A
:1027A0000020FEF72EFC0020FEF72BFC0020FEF799
:1027B00028FC0020FEF725FC0020FEF722FC00206C
:1027C000FEF71FFC0020FEF71CFC0020FEF719FCA2
:1027D0000020FEF716FC0020FEF713FCB420FEF7E5
:1027E00007FC8B20FEF70DFC0020FEF70AFC96206C
:1027F000FEF707FC0020FEF704FCA120FEF701FC19
:102800000020FEF7FEFBB520FEF7F2FB0220FEF7EC
:10281000F8FB0020FEF7F5FB0320FEF7F2FB00209B
:10282000FEF7EFFB0420FEF7ECFB0020FEF7E9FBD0
:10283000B620FEF7DDFB0020FEF7E3FB0020FEF7ED
:10284000E0FBB720FEF7D4FB0020FEF7DAFB002008
:10285000FEF7D7FB3F20FEF7D4FB0020FEF7D1FBAD
:102860005E20FEF7CEFB0020FEF7CBFB6420FEF7D8
:10287000C8FB0020FEF7C5FB8C20FEF7C2FB002042
:10288000FEF7BFFBAC20FEF7BCFB0020FEF7B9FB58
:10289000DC20FEF7B6FB01E0BA0800200020FEF7BE
:1028A000B0FB7020FEF7ADFB0020FEF7AAFB9020E6
:1028B000FEF7A7FB0020FEF7A4FBEB20FEF7A1FB31
:1028C0000020FEF79EFBDC20FEF79BFB0020FEF7BE
:1028D00098FBB820FEF78CFB0020FEF792FB00204F
:1028E000FEF78FFB0020FEF78CFB0020FEF789FB34
:1028F0000020FEF786FB0020FEF783FB0020FEF79A
:1029000080FB0020FEF77DFBBA20FEF771FB242040
:10291000FEF777FB0020FEF774FB0020FEF771FB4B
:102920000020FEF76EFBC120FEF762FB2020FEF7C1
:1029300068FB0020FEF765FB5420FEF762FB0020D9
:10294000FEF75FFBFF20FEF75CFB0020FEF759FB64
:10295000C220FEF74DFB0A20FEF753FB0020FEF7D6
:1029600050FB0420FEF74DFB0020FEF74AFBC3207E
:10297000FEF73EFB3C20FEF744FB0020FEF741FB48
:102980003A20FEF73EFB0020FEF73BFB3920FEF726
:1029900038FB0020FEF735FB3720FEF732FB002026
:1029A000FEF72FFB3C20FEF72CFB0020FEF729FB57
:1029B0003620FEF726FB0020FEF723FB3220FEF731
:1029C00020FB0020FEF71DFB2F20FEF71AFB002046
:1029D000FEF717FB2C20FEF714FB0020FEF711FB7F
:1029E0002920FEF70EFB0020FEF70BFB2620FEF74A
:1029F00008FB0020FEF705FB2420FEF702FB002069
:102A0000FEF7FFFA2420FEF7FCFA0020FEF7F9FAA1
:102A10002320FEF7F6FA0020FEF7F3FA3C20FEF73B
:102A2000F0FA0020FEF7EDFA3620FEF7EAFA002071
:102A3000FEF7E7FA3220FEF7E4FA0020FEF7E1FAAB
:102A40002F20FEF7DEFA0020FEF7DBFA2C20FEF73F
:102A5000D8FA0020FEF7D5FA2920FEF7D2FA002096
:102A6000FEF7CFFA2620FEF7CCFA0020FEF7C9FACF
:102A70002420FEF7C6FA0020FEF7C3FA2420FEF752
:102A8000C0FA0020FEF7BDFA2320FEF7BAFA0020B4
:102A9000FEF7B7FAC420FEF7ABFA6220FEF7B1FAF0
:102AA0000020FEF7AEFA0520FEF7ABFA0020FEF795
:102AB000A8FA8420FEF7A5FA0020FEF7A2FAF0207B
:102AC000FEF79FFA0020FEF79CFA1820FEF799FA0D
:102AD0000020FEF796FAA420FEF793FA0020FEF7F6
:102AE00090FA1820FEF78DFA0020FEF78AFA50209F
:102AF000FEF787FA0020FEF784FA0C20FEF781FA31
:102B00000020FEF77EFA1720FEF77BFA0020FEF782
:102B100078FA9520FEF775FA0020FEF772FAF32096
:102B2000FEF76FFA0020FEF76CFAE620FEF769FA6E
:102B30000020FEF766FAC520FEF75AFA3220FEF7AB
:102B400060FA0020FEF75DFA4420FEF75AFA0020F2
:102B5000FEF757FA6520FEF754FA0020FEF751FA07
:102B60007620FEF74EFA0020FEF74BFA8820FEF79B
:102B700048FA0020FEF745FAC620FEF739FA202071
:102B8000FEF73FFA0020FEF73CFA1720FEF739FA6D
:102B90000020FEF736FA0120FEF733FA0020FEF798
:102BA00030FAC720FEF724FA0020FEF72AFA0020A8
:102BB000FEF727FA0020FEF724FA0020FEF721FA9C
:102BC000C820FEF715FA0020FEF71BFA0020FEF7DA
:102BD00018FA0020FEF715FA0020FEF712FAC920B5
:102BE000FEF706FA0020FEF70CFA0020FEF709FABD
:102BF0000020FEF706FA0020FEF703FA0020FEF799
:102C000000FA0020FEF7FDF90020FEF7FAF9002097
:102C1000FEF7F7F90020FEF7F4F90020FEF7F1F9CE
:102C20000020FEF7EEF90020FEF7EBF90020FEF79A
:102C3000E8F90020FEF7E5F90020FEF7E2F90020B0
:102C4000FEF7DFF9E020FEF7D3F91620FEF7D9F9F9
:102C50000020FEF7D6F91C20FEF7D3F90020FEF77E
:102C6000D0F92120FEF7CDF90020FEF7CAF9362071
:102C7000FEF7C7F90020FEF7C4F94620FEF7C1F9B8
:102C80000020FEF7BEF95220FEF7BBF90020FEF748
:102C9000B8F96420FEF7B5F90020FEF7B2F97A2002
:102CA000FEF7AFF90020FEF7ACF98B20FEF7A9F98B
:102CB0000020FEF7A6F99920FEF7A3F90020FEF701
:102CC000A0F9A820FEF79DF90020FEF79AF9B92097
:102CD000FEF797F90020FEF794F9C420FEF791F96A
:102CE0000020FEF78EF9CA20FEF78BF90020FEF7D0
:102CF00088F9D220FEF785F90020FEF782F9D92065
:102D0000FEF77FF90020FEF77CF9E020FEF779F965
:102D10000020FEF776F9F320FEF773F90020FEF7A6
:102D200070F9E120FEF764F91620FEF76AF9002039
:102D3000FEF767F91C20FEF764F90020FEF761F941
:102D40002220FEF75EF90020FEF75BF93620FEF741
:102D500058F90020FEF755F94520FEF752F90020FA
:102D6000FEF74FF95220FEF74CF90020FEF749F923
:102D70006420FEF746F90020FEF743F97A20FEF7BB
:102D800040F90020FEF73DF98B20FEF73AF90020CC
:102D9000FEF737F99920FEF734F90020FEF731F9F4
:102DA000A820FEF72EF90020FEF72BF9B920FEF738
:102DB00028F90020FEF725F9C420FEF722F90020AB
:102DC000FEF71FF9CA20FEF71CF90020FEF719F9DB
:102DD000D220FEF716F90020FEF713F9D820FEF7EF
:102DE00010F90020FEF70DF9E020FEF70AF90020A7
:102DF000FEF707F9F320FEF704F90020FEF701F9CA
:102E0000E220FEF7F5F80520FEF7FBF80020FEF7BC
:102E1000F8F80B20FEF7F5F80020FEF7F2F81B207B
:102E2000FEF7EFF80020FEF7ECF83420FEF7E9F8A3
:102E30000020FEF7E6F84420FEF7E3F80020FEF756
:102E4000E0F84F20FEF7DDF80020FEF7DAF8612009
:102E5000FEF7D7F80020FEF7D4F87920FEF7D1F876
:102E60000020FEF7CEF88820FEF7CBF80020FEF712
:102E7000C8F89720FEF7C5F80020FEF7C2F8A62094
:102E8000FEF7BFF80020FEF7BCF8B720FEF7B9F850
:102E90000020FEF7B6F8C220FEF7B3F80020FEF7D8
:102EA000B0F8C720FEF7ADF80020FEF7AAF8D12051
:102EB000FEF7A7F80020FEF7A4F8D620FEF7A1F849
:102EC0000020FEF79EF8DD20FEF79BF80020FEF7BD
:102ED00098F8F320FEF795F80020FEF792F8E3202B
:102EE000FEF786F80520FEF78CF80020FEF789F83B
:102EF0000A20FEF786F80020FEF783F81C20FEF774
:102F000080F80020FEF77DF83320FEF77AF80020E5
:102F1000FEF777F84420FEF774F80020FEF771F80A
:102F20005020FEF76EF80020FEF76BF86220FEF7E7
:102F300068F80020FEF765F87820FEF762F80020B8
:102F4000FEF75FF88820FEF75CF80020FEF759F8DE
:102F50009720FEF756F80020FEF753F8A620FEF75C
:102F600050F80020FEF74DF8B720FEF74AF8002091
:102F7000FEF747F8C220FEF744F80020FEF741F8BC
:102F8000C720FEF73EF80020FEF73BF8D120FEF701
:102F900038F80020FEF735F8D520FEF732F800208B
:102FA000FEF72FF8DD20FEF72CF80020FEF729F8B9
:102FB000F320FEF726F80020FEF723F8E420FEF7C2
:102FC00017F80120FEF71DF80020FEF71AF801207F
:102FD000FEF717F80020FEF714F80220FEF711F8AC
:102FE0000020FEF70EF82A20FEF70BF80020FEF76F
:102FF00008F83C20FEF705F80020FEF702F84B2009
:10300000FDF7FFFF0020FDF7FCFF5D20FDF7F9FF56
:103010000020FDF7F6FF7420FDF7F3FF0020FDF719
:10302000F0FF8420FDF7EDFF0020FDF7EAFF93207D
:10303000FDF7E7FF0020FDF7E4FFA220FDF7E1FF29
:103040000020FDF7DEFFB320FDF7DBFF0020FDF7DA
:10305000D8FFBE20FDF7D5FF0020FDF7D2FFC4202A
:10306000FDF7CFFF0020FDF7CCFFCD20FDF7C9FF16
:103070000020FDF7C6FFD320FDF7C3FF0020FDF7BA
:10308000C0FFDD20FDF7BDFF0020FDF7BAFFF320F4
:10309000FDF7B7FF0020FDF7B4FFE520FDF7A8FF1F
:1030A0000020FDF7AEFF0020FDF7ABFF0020FDF78D
:1030B000A8FF0020FDF7A5FF0220FDF7A2FF0020DA
:1030C000FDF79FFF2920FDF79CFF0020FDF799FFEA
:1030D0003C20FDF796FF0020FDF793FF4B20FDF706
:1030E00090FF0020FDF78DFF5D20FDF78AFF002097
:1030F000FDF787FF7420FDF784FF0020FDF781FFB7
:103100008420FDF77EFF0020FDF77BFF9320FDF775
:1031100078FF0020FDF775FFA220FDF772FF002069
:10312000FDF76FFFB320FDF76CFF0020FDF769FF8F
:10313000BE20FDF766FF0020FDF763FFC420FDF70A
:1031400060FF0020FDF75DFFCD20FDF75AFF002056
:10315000FDF757FFD320FDF754FF0020FDF751FF87
:10316000DC20FDF74EFF0020FDF74BFFF320FDF7BD
:1031700048FF0020FDF745FFE620FDF739FF11204D
:10318000FDF73FFF0020FDF73CFF3420FDF739FF3E
:103190000020FDF736FF5620FDF733FF0020FDF736
:1031A00030FF7620FDF72DFF0020FDF72AFF772066
:1031B000FDF727FF0020FDF724FF6620FDF721FF24
:1031C0000020FDF71EFF8820FDF71BFF0020FDF704
:1031D00018FF9920FDF715FF0020FDF712FFBB2017
:1031E000FDF70FFF0020FDF70CFF9920FDF709FF09
:1031F0000020FDF706FF6620FDF703FF0020FDF726
:1032000000FF5520FDF7FDFE0020FDF7FAFE5520DA
:10321000FDF7F7FE0020FDF7F4FE4520FDF7F1FE77
:103220000020FDF7EEFE4320FDF7EBFE0020FDF74A
:10323000E8FE4420FDF7E5FE0020FDF7E2FEE72072
:10324000FDF7D6FE3220FDF7DCFE0020FDF7D9FEAB
:103250005520FDF7D6FE0020FDF7D3FE7620FDF7C2
:10326000D0FE0020FDF7CDFE6620FDF7CAFE00204F
:10327000FDF7C7FE6720FDF7C4FE0020FDF7C1FE85
:103280006720FDF7BEFE0020FDF7BBFE8720FDF79F
:10329000B8FE0020FDF7B5FE9920FDF7B2FE002034
:1032A000FDF7AFFEBB20FDF7ACFE0020FDF7A9FE49
:1032B0009920FDF7A6FE0020FDF7A3FE7720FDF77D
:1032C000A0FE0020FDF79DFE4420FDF79AFE0020A1
:1032D000FDF797FE5620FDF794FE0020FDF791FEC6
:1032E0002320FDF78EFE0020FDF78BFE3320FDF737
:1032F00088FE0020FDF785FE4520FDF782FE0020B8
:10330000FDF77FFEE820FDF773FE0020FDF779FE54
:103310000020FDF776FE9920FDF773FE0020FDF7F3
:1033200070FE8720FDF76DFE0020FDF76AFE882005
:10333000FDF767FE0020FDF764FE7720FDF761FED4
:103340000020FDF75EFE6620FDF75BFE0020FDF726
:1033500058FE8820FDF755FE0020FDF752FEAA20FA
:10336000FDF74FFE0020FDF74CFEBB20FDF749FEA8
:103370000020FDF746FE9920FDF743FE0020FDF7F3
:1033800040FE6620FDF73DFE0020FDF73AFE552089
:10339000FDF737FE0020FDF734FE5520FDF731FE26
:1033A0000020FDF72EFE4420FDF72BFE0020FDF748
:1033B00028FE4420FDF725FE0020FDF722FE5520C3
:1033C000FDF71FFE0020FDF71CFEE920FDF710FEB3
:1033D000AA20FDF716FE0020FDF713FE0020FDF7E2
:1033E00010FE0020FDF70DFE0020FDF701FEAA20D3
:1033F000FDF707FECF20FDF7FBFD0020FDF701FEE6
:103400000020FDF7FEFD0020FDF7FBFD0020FDF78D
:10341000F8FD0020FDF7F5FD0020FDF7F2FD00208E
:10342000FDF7EFFD0020FDF7ECFD0020FDF7E9FDC5
:103430000020FDF7E6FD0020FDF7E3FD0020FDF78D
:10344000E0FD0020FDF7DDFD0020FDF7DAFD0020A6
:10345000FDF7D7FD0020FDF7D4FD0020FDF7D1FDDD
:10346000F020FDF7C5FD0020FDF7CBFD5020FDF756
:10347000C8FD0020FDF7C5FD0020FDF7C2FD0020BE
:10348000FDF7BFFDF320FDF7B3FD0020FDF7B9FD0B
:10349000F920FDF7ADFD0620FDF7B3FD1020FDF787
:1034A000B0FD2920FDF7ADFD0020FDF7AAFD3A2073
:1034B000FDF79EFD5520FDF7A4FD1120FDF798FDB9
:1034C000642006F0A1FB2920FDF792FD3520FDF7D1
:1034D0008FFD0020FDF795FD5120FDF789FDFF20B0
:1034E000FDF78FFD5320FDF783FD2C20FDF789FDAF
:1034F0005520FDF77DFD8220FDF783FD2C20FDF793
:1035000077FD02F0E5B8FE488088A0F5AA411039A1
:103510007ED155214FF47040FDF783FDAA214FF273
:103520000100FDF77EFD52214FF20200FDF779FD0B
:1035300008214FF20300FDF774FD01214FF2040052
:10354000FDF76FFD0D214FF43040FDF76AFD0D21B1
:103550004BF20100FDF765FD0D214BF20200FDF776
:1035600060FD34214FF43640FDF75BFD34214BF212
:103570000160FDF756FD34214BF20260FDF751FD6D
:103580000D214FF43140FDF74CFD0D214BF20110A0
:10359000FDF747FD0D214BF20210FDF742FD3421EE
:1035A0004FF43740FDF73DFD34214BF20170FDF73C
:1035B00038FD34214BF20270FDF733FD00214FF44A
:1035C0003240FDF72EFD00214BF20120FDF729FDD1
:1035D00000214BF20220FDF724FD24214FF4384056
:1035E000FDF71FFD24214BF60100FDF71AFD2421F4
:1035F0004BF60200FDF715FD01214FF43F40FDF7AA
:1036000010FD0F214FF43340FDF70BFD0F2100E0BB
:10361000FEE34BF20130FDF704FD0F214BF20230C7
:10362000FDF7FFFC34214FF43940FDF7FAFC34215B
:103630004BF60110FDF7F5FC34214BF60210FDF7B7
:10364000F0FC08214FF43540FDF7EBFC08214BF26C
:103650000150FDF7E6FC08214BF20250FDF7E1FCBA
:1036600003214FF44240FDF7DCFC24214FF43A40A3
:10367000FDF7D7FC24214BF60120FDF7D2FC2421D5
:103680004BF60220FDF7CDFC00214FF43C40FDF746
:10369000C8FC78214BF60140FDF7C3FC00214BF636
:1036A0000240FDF7BEFC00214FF43D40FDF7B9FCA0
:1036B00078214BF60150FDF7B4FC00214BF6025087
:1036C000FDF7AFFC00214FF43E40FDF7AAFC64215A
:1036D0004BF60160FDF7A5FC00214FF45140FDF7CA
:1036E000A0FC33214DF20110FDF79BFC00214DF2AF
:1036F0000210FDF796FC34214DF20310FDF791FC0A
:1037000000214DF20410FDF78CFC3A214DF205101A
:10371000FDF787FC00214DF20610FDF782FC4A21DF
:103720004DF20710FDF77DFC00214DF20810FDF76A
:1037300078FC5C214DF20910FDF773FC00214DF27D
:103740000A10FDF76EFC81214DF20B10FDF769FCAC
:1037500000214DF20C10FDF764FCA6214DF20D1076
:10376000FDF75FFC00214DF20E10FDF75AFCE5213C
:103770004DF20F10FDF755FC01214DF21010FDF731
:1037800050FC13214DF21110FDF74BFC01214DF2BD
:103790001210FDF746FC54214DF21310FDF741FCC9
:1037A00001214DF21410FDF73CFC82214DF2151061
:1037B000FDF737FC01214DF21610FDF732FCCA214E
:1037C0004DF21710FDF72DFC02214DF21810FDF7F8
:1037D00028FC00214DF21910FDF723FC02214DF2C7
:1037E0001A10FDF71EFC01214DF21B10FDF719FC0C
:1037F00002214DF21C10FDF714FC34214DF21D1076
:10380000FDF70FFC02214DF21E10FDF70AFC6721A7
:103810004DF21F10FDF705FC02214DF22010FDF7BF
:1038200000FC84214DF22110FDF7FBFB02214DF23B
:103830002210FDF7F6FBA4214DF22310FDF7F1FB5A
:1038400002214DF22410FDF7ECFBB7214DF22510BB
:10385000FDF7E7FB02214DF22610FDF7E2FBCF2139
:103860004DF22710FDF7DDFB02214DF22810FDF788
:10387000D8FBDE214DF22910FDF7D3FB02214DF2DA
:103880002A10FDF7CEFBF2214DF22B10FDF7C9FBFC
:1038900002214DF22C10FDF7C4FBFE214DF22D103C
:1038A000FDF7BFFB03214DF22E10FDF7BAFB1021EF
:1038B0004DF22F10FDF7B5FB03214DF23010FDF74F
:1038C000B0FB33214DF23110FDF7ABFB03214DF27C
:1038D0003210FDF7A6FB6D214DF23310FDF7A1FB71
:1038E00000214FF45240FDF79CFB33214DF20120A3
:1038F000FDF797FB00214DF20220FDF792FB01E05E
:10390000BA08002034214DF20320FDF78AFB002184
:103910004DF20420FDF785FB3A214DF20520FDF71D
:1039200080FB00214DF20620FDF77BFB4A214DF282
:103930000720FDF776FB00214DF20820FDF771FB13
:103940005C214DF20920FDF76CFB00214DF20A20AD
:10395000FDF767FB81214DF20B20FDF762FB002193
:103960004DF20C20FDF75DFBA6214DF20D20FDF779
:1039700058FB00214DF20E20FDF753FBE5214DF2DF
:103980000F20FDF74EFB01214DF21020FDF749FB02
:1039900013214DF21120FDF744FB01214DF21220BD
:1039A000FDF73FFB54214DF21320FDF73AFB0121B7
:1039B0004DF21420FDF735FB82214DF21520FDF765
:1039C00030FB01214DF21620FDF72BFBCA214DF2F1
:1039D0001720FDF726FB02214DF21820FDF721FBF1
:1039E00000214DF21920FDF71CFB02214DF21A2097
:1039F000FDF717FB01214DF21B20FDF712FB022101
:103A00004DF21C20FDF70DFB34214DF21D20FDF77A
:103A100008FB02214DF21E20FDF703FB67214DF24A
:103A20001F20FDF7FEFA02214DF22020FDF7F9FAE2
:103A300084214DF22120FDF7F4FA02214DF22220DB
:103A4000FDF7EFFAA4214DF22320FDF7EAFA022157
:103A50004DF22420FDF7E5FAB7214DF22520FDF7C0
:103A6000E0FA02214DF22620FDF7DBFACF214DF2DC
:103A70002720FDF7D6FA02214DF22820FDF7D1FAD2
:103A8000DE214DF22920FDF7CCFA02214DF22A2049
:103A9000FDF7C7FAF2214DF22B20FDF7C2FA022101
:103AA0004DF22C20FDF7BDFAFE214DF22D20FDF741
:103AB000B8FA03214DF22E20FDF7B3FA10214DF292
:103AC0002F20FDF7AEFA03214DF23020FDF7A9FAC1
:103AD00033214DF23120FDF7A4FA03214DF23220BB
:103AE000FDF79FFA6D214DF23320FDF79AFA002180
:103AF0004FF45340FDF795FA33214DF20130FDF7B5
:103B000090FA00214DF20230FDF78BFA34214DF28C
:103B10000330FDF786FA00214DF20430FDF781FAFB
:103B20003A214DF20530FDF77CFA00214DF20630C6
:103B3000FDF777FA4A214DF20730FDF772FA0021BE
:103B40004DF20830FDF76DFA5C214DF20930FDF7BA
:103B500068FA00214DF20A30FDF763FA81214DF237
:103B60000B30FDF75EFA00214DF20C30FDF759FAEB
:103B7000A6214DF20D30FDF754FA00214DF20E3022
:103B8000FDF74FFAE5214DF20F30FDF74AFA01211A
:103B90004DF21030FDF745FA13214DF21130FDF7CB
:103BA00040FA01214DF21230FDF73BFA54214DF25B
:103BB0001330FDF736FA01214DF21430FDF731FADA
:103BC00082214DF21530FDF72CFA01214DF216300D
:103BD000FDF727FACA214DF21730FDF722FA02212C
:103BE0004DF21830FDF71DFA00214DF21930FDF7A6
:103BF00018FA02214DF21A30FDF713FA01214DF2A5
:103C00001B30FDF70EFA02214DF21C30FDF709FAC8
:103C100034214DF21D30FDF704FA02214DF21E3021
:103C2000FDF7FFF967214DF21F30FDF7FAF9022188
:103C30004DF22030FDF7F5F984214DF22130FDF7EA
:103C4000F0F902214DF22230FDF7EBF9A4214DF2FB
:103C50002330FDF7E6F902214DF22430FDF7E1F9BA
:103C6000B7214DF22530FDF7DCF902214DF2263067
:103C7000FDF7D7F9CF214DF22730FDF7D2F9022118
:103C80004DF22830FDF7CDF9DE214DF22930FDF758
:103C9000C8F902214DF22A30FDF7C3F9F2214DF2A5
:103CA0002B30FDF7BEF902214DF22C30FDF7B9F9AA
:103CB000FE214DF22D30FDF7B4F903214DF22E30E7
:103CC000FDF7AFF910214DF22F30FDF7AAF90321CE
:103CD0004DF23030FDF7A5F933214DF23130FDF7CB
:103CE000A0F903214DF23230FDF79BF96D214DF221
:103CF0003330FDF796F900214FF45440FDF791F968
:103D000033214DF20140FDF78CF900214DF20240C4
:103D1000FDF787F934214DF20340FDF782F90021C8
:103D20004DF20440FDF77DF93A214DF20540FDF7D3
:103D300078F900214DF20640FDF773F94A214DF262
:103D40000740FDF76EF900214DF20840FDF769F9D3
:103D50005C214DF20940FDF764F900214DF20A4063
:103D6000FDF75FF981214DF20B40FDF75AF9002173
:103D70004DF20C40FDF755F9A6214DF20D40FDF72F
:103D800050F900214DF20E40FDF74BF9E5214DF2BF
:103D90000F40FDF746F901214DF21040FDF741F9C2
:103DA00013214DF21140FDF73CF901214DF2124073
:103DB000FDF737F954214DF21340FDF732F9012197
:103DC0004DF21440FDF72DF982214DF21540FDF71B
:103DD00028F901214DF21640FDF723F9CA214DF2D1
:103DE0001740FDF71EF902214DF21840FDF719F9B1
:103DF00000214DF21940FDF714F902214DF21A404D
:103E0000FDF70FF901214DF21B40FDF70AF900E023
:103E100004E302214DF21C40FDF703F934214DF279
:103E20001D40FDF7FEF802214DF21E40FDF7F9F8A6
:103E300067214DF21F40FDF7F4F802214DF22040BA
:103E4000FDF7EFF884214DF22140FDF7EAF8022159
:103E50004DF22240FDF7E5F8A4214DF22340FDF795
:103E6000E0F802214DF22440FDF7DBF8B7214DF2D6
:103E70002540FDF7D6F802214DF22640FDF7D1F896
:103E8000CF214DF22740FDF7CCF802214DF228401A
:103E9000FDF7C7F8DE214DF22940FDF7C2F80221F7
:103EA0004DF22A40FDF7BDF8F2214DF22B40FDF70F
:103EB000B8F802214DF22C40FDF7B3F8FE214DF287
:103EC0002D40FDF7AEF803214DF22E40FDF7A9F885
:103ED00010214DF22F40FDF7A4F803214DF23040A0
:103EE000FDF79FF833214DF23140FDF79AF8032199
:103EF0004DF23240FDF795F86D214DF23340FDF75C
:103F000090F800214FF45540FDF78BF833214DF226
:103F10000150FDF786F800214DF20250FDF781F8BF
:103F200034214DF20350FDF77CF800214DF204508E
:103F3000FDF777F83A214DF20550FDF772F80021B0
:103F40004DF20650FDF76DF84A214DF20750FDF78E
:103F500068F800214DF20850FDF763F85C214DF23E
:103F60000950FDF75EF800214DF20A50FDF759F8AF
:103F700081214DF20B50FDF754F800214DF20C5009
:103F8000FDF74FF8A6214DF20D50FDF74AF800213C
:103F90004DF20E50FDF745F8E5214DF20F50FDF7BB
:103FA00040F801214DF21050FDF73BF813214DF27E
:103FB0001150FDF736F801214DF21250FDF731F89E
:103FC00054214DF21350FDF72CF801214DF21450FD
:103FD000FDF727F882214DF21550FDF722F8012157
:103FE0004DF21650FDF71DF8CA214DF21750FDF79E
:103FF00018F802214DF21850FDF713F800214DF288
:104000001950FDF70EF802214DF21A50FDF709F88C
:1040100001214DF21B50FDF704F802214DF21C5016
:10402000FCF7FFFF34214DF21D50FCF7FAFF02218F
:104030004DF21E50FCF7F5FF67214DF21F50FCF7C3
:10404000F0FF02214DF22050FCF7EBFF84214DF2EE
:104050002150FCF7E6FF02214DF22250FCF7E1FF70
:10406000A4214DF22350FCF7DCFF02214DF2245035
:10407000FCF7D7FFB7214DF22550FCF7D2FF022104
:104080004DF22650FCF7CDFFCF214DF22750FCF723
:10409000C8FF02214DF22850FCF7C3FFDE214DF28C
:1040A0002950FCF7BEFF02214DF22A50FCF7B9FF60
:1040B000F2214DF22B50FCF7B4FF02214DF22C50AF
:1040C000FCF7AFFFFE214DF22D50FCF7AAFF0321B4
:1040D0004DF22E50FCF7A5FF10214DF22F50FCF7AA
:1040E000A0FF03214DF23050FCF79BFF33214DF22E
:1040F0003150FCF796FF03214DF23250FCF791FF4F
:104100006D214DF23350FCF78CFF00214FF45640E7
:10411000FCF787FF33214DF20160FCF782FF00219D
:104120004DF20260FCF77DFF34214DF20360FCF795
:1041300078FF00214DF20460FCF773FF3A214DF245
:104140000560FCF76EFF00214DF20660FCF769FF89
:104150004A214DF20760FCF764FF00214DF2086030
:10416000FCF75FFF5C214DF20960FCF75AFF00216C
:104170004DF20A60FCF755FF81214DF20B60FCF710
:1041800050FF00214DF20C60FCF74BFFA6214DF2D1
:104190000D60FCF746FF00214DF20E60FCF741FF79
:1041A000E5214DF20F60FCF73CFF01214DF210605C
:1041B000FCF737FF13214DF21160FCF732FF0121AC
:1041C0004DF21260FCF72DFF54214DF21360FCF705
:1041D00028FF01214DF21460FCF723FF82214DF2EC
:1041E0001560FCF71EFF01214DF21660FCF719FF68
:1041F000CA214DF21760FCF714FF02214DF218603E
:10420000FCF70FFF00214DF21960FCF70AFF0221B5
:104210004DF21A60FCF705FF01214DF21B60FCF71F
:1042200000FF02214DF21C60FCF7FBFE34214DF231
:104230001D60FCF7F6FE02214DF21E60FCF7F1FE58
:1042400067214DF21F60FCF7ECFE02214DF2206069
:10425000FCF7E7FE84214DF22160FCF7E2FE02212B
:104260004DF22260FCF7DDFEA4214DF22360FCF745
:10427000D8FE02214DF22460FCF7D3FEB7214DF2A7
:104280002560FCF7CEFE02214DF22660FCF7C9FE48
:10429000CF214DF22760FCF7C4FE02214DF22860C9
:1042A000FCF7BFFEDE214DF22960FCF7BAFE0221C9
:1042B0004DF22A60FCF7B5FEF2214DF22B60FCF7BF
:1042C000B0FE02214DF22C60FCF7ABFEFE214DF258
:1042D0002D60FCF7A6FE03214DF22E60FCF7A1FE37
:1042E00010214DF22F60FCF79CFE03214DF230604F
:1042F000FCF797FE33214DF23160FCF792FE03216B
:104300004DF23260FCF78DFE6D214DF23360FCF70B
:1043100088FE55214FF47040FCF783FEAA214FF22E
:104320000100FCF77EFE52214FF20200FCF779FEFD
:1043300008214FF20300FCF774FE00214FF2040045
:10434000FCF76FFECC214FF43140FCF76AFE0021F0
:104350004BF20110FCF765FE05214FF43640FCF7E7
:1043600060FE70214FF43740FCF75BFE70214BF28A
:104370000170FCF756FE01214FF43840FCF751FE66
:1043800003214BF60100FCF74CFE03214BF6020023
:10439000FCF747FE03214BF60300FCF742FE022127
:1043A0004FF43C40FCF73DFE00214BF60140FCF78A
:1043B00038FE00214BF60240FCF733FED0214FF4CB
:1043C0004940FCF72EFE02214CF60110FCF729FEB5
:1043D00050214CF60210FCF724FE50214CF603103D
:1043E000FCF71FFE50214CF60410FCF71AFE0021CA
:1043F0004FF45450FCF715FE55214FF46850FCF76C
:1044000010FE4FF48850FCF7F3FD782005F0D1FB47
:104410004FF42450FCF7ECFD01F05AB9FE488088B7
:10442000A0F5134125397DD147F6F001E520FCF7D1
:10443000F8FD4FF480710120FCF7F3FD4FF4E061CB
:104440000220FCF7EEFD41F230010320FCF7E9FD0C
:1044500000210420FCF7E5FD40F202210820FCF7D2
:10446000E0FD00210920FCF7DCFD00210A20FCF71B
:10447000D8FD00210C20FCF7D4FD00210D20FCF715
:10448000D0FD00210F20FCF7CCFD00211020FCF70F
:10449000C8FD07211120FCF7C4FD00211220FCF704
:1044A000C0FD00211320FCF7BCFD00210720FCF714
:1044B000B8FD41F290611020FCF7B3FD40F22721D6
:1044C0001120FCF7AEFD9D211220FCF7AAFD4FF450
:1044D000C8511320FCF7A5FD25212920FCF7A1FDDB
:1044E0000D212B20FCF79DFD07213020FCF799FDC5
:1044F00040F203313120FCF794FD03213220FCF718
:1045000090FD40F206213520FCF78BFD0821362076
:10451000FCF787FD40F206413720FCF782FD4FF49F
:10452000417100E058E03820FCF77BFD072139207D
:10453000FCF777FD40F202613C20FCF772FD082198
:104540003D20FCF76EFD00215020FCF76AFDEF21B5
:104550005120FCF766FD00215220FCF762FD40F27D
:104560003F115320FCF75DFD4FF427416020FCF71D
:1045700058FD01216120FCF754FD00216A20FCF761
:1045800050FD00218020FCF74CFD00218120FCF72C
:1045900048FD00218220FCF744FD00218320FCF728
:1045A00040FD00218420FCF73CFD00218520FCF724
:1045B00038FD10219020FCF734FD4FF4C0619220AB
:1045C000FCF72FFD40F233110720FCF72AFD2221D2
:1045D0000020FCF726FD1FE78F488088A0F51341D7
:1045E00028397DD141F28F01EC20FCF71AFD41F210
:1045F0003421EF20FCF715FD4FF480710120FCF70A
:1046000010FD4FF4E0610220FCF70BFD41F2300198
:104610000320FCF706FD00210420FCF702FD40F218
:1046200002210820FCF7FDFC00210920FCF7F9FC21
:1046300000210A20FCF7F5FC01210C20FCF7F1FC1D
:1046400000210D20FCF7EDFC00210F20FCF7E9FC18
:1046500000211020FCF7E5FC07211120FCF7E1FC0C
:1046600000211220FCF7DDFC00211320FCF7D9FC0F
:1046700001210720FCF7D5FC322005F0C5FA41F2F4
:1046800090411020FCF7CDFC40F227211120FCF7CF
:10469000C8FC322005F0B8FA8A211220FCF7C1FCD0
:1046A000322005F0B1FA4FF4D0511320FCF7B9FCD9
:1046B00006212920FCF7B5FC0D212B20FCF7B1FCCD
:1046C000322005F0A1FA00212020FCF7AAFC0021ED
:1046D0002120FCF7A6FC322005F096FA002100E02C
:1046E00075E03020FCF79DFC40F204613120FCF7BE
:1046F00098FC40F205313220FCF793FC0021352074
:10470000FCF78FFC40F609413620FCF78AFC4FF499
:1047100001713720FCF785FC40F201313820FCF7AD
:1047200080FC40F207713920FCF77BFC00213C2023
:10473000FCF777FC40F60A213D20FCF772FC3220A2
:1047400005F062FA00215020FCF76BFCEF215120AC
:10475000FCF767FC00215220FCF763FC40F23F119C
:104760005320FCF75EFC4FF427416020FCF759FC16
:1047700001216120FCF755FC00216A20FCF751FC67
:1047800000218020FCF74DFC00218120FCF749FC32
:1047900000218220FCF745FC00218320FCF741FC2E
:1047A00000218420FCF73DFC00218520FCF739FC2A
:1047B00010219020FCF735FC4FF4C0619220FCF7EB
:1047C00030FC40F233110720FCF72BFC24E61248A2
:1047D0008088A0F5134120397ED10846FCF721FCE2
:1047E0004FF480710120FCF71CFC4FF4E0610220C3
:1047F000FCF717FC41F230010320FCF712FC00210A
:104800000420FCF70EFC40F202210820FCF709FC12
:104810000021092002E00000BA080020FCF701FC9A
:1048200000210A20FCF7FDFB01210C20FCF7F9FB1D
:1048300000210D20FCF7F5FB00210F20FCF7F1FB18
:10484000322005F0E1F940F201110720FCF7E9FB05
:10485000322005F0D9F94FF486511020FCF7E1FB26
:1048600007211120FCF7DDFB4FF488711220FCF7C3
:10487000D8FB4FF430611320FCF7D3FB0021292033
:10488000FCF7CFFB44F210012B20FCF7CAFB002100
:104890005020FCF7C6FBEF215120FCF7C2FB0021A2
:1048A0005220FCF7BEFB40F23F115320FCF7B9FB4E
:1048B0004FF41C516020FCF7B4FB01216120FCF790
:1048C000B0FB00216A20FCF7ACFB00218020FCF744
:1048D000A8FB0021812000E030E0FCF7A2FB0021D2
:1048E0008220FCF79EFB00218320FCF79AFB00212D
:1048F0008420FCF796FB00218520FCF792FB102119
:104900009020FCF78EFB00219220FCF78AFB01210E
:104910009320FCF786FB4FF488719520FCF781FB10
:1049200000219720FCF77DFB00219820FCF779FB04
:1049300040F273110720FCF774FB6DE5FE48808898
:10494000A0F5134131397DD141F21401E720FCF784
:1049500068FB4FF480710120FCF763FB4FF400719A
:104960000220FCF75EFB41F238010320FCF759FB03
:1049700040F202210820FCF754FB00210920FCF73B
:1049800050FB00210A20FCF74CFB00210C20FCF717
:1049900048FB00210D20FCF744FB00210F20FCF711
:1049A00040FB00211020FCF73CFB07211120FCF705
:1049B00038FB00211220FCF734FB00211320FCF708
:1049C00030FBC82005F020F941F290611020FCF77F
:1049D00028FB40F227211120FCF723FB322005F0B1
:1049E00013F90C211220FCF71CFB322005F00CF906
:1049F0004FF400611320FCF714FB11212920FCF770
:104A000010FB0B212B20FCF70CFB322005F0FCF8EF
:104A100000212020FCF705FB40F23F112120FCF78C
:104A200000FB00213020FCF7FCFA4FF483713120A9
:104A3000FCF7F7FA00213220FCF7F3FA4FF401718A
:104A4000352000E064E0FCF7ECFA41F20A61362020
:104A5000FCF7E7FA40F207713720FCF7E2FA4FF46F
:104A600083713820FCF7DDFA40F207713920FCF73A
:104A7000D8FA40F202413C20FCF7D3FA40F60F414D
:104A80003D20FCF7CEFA00215020FCF7CAFAEF21B6
:104A90005120FCF7C6FA00215220FCF7C2FA40F27E
:104AA0003F115320FCF7BDFA4FF41C516020FCF776
:104AB000B8FA01216120FCF7B4FA00216A20FCF762
:104AC000B0FA00218020FCF7ACFA00218120FCF72D
:104AD000A8FA00218220FCF7A4FA00218320FCF729
:104AE000A0FA00218420FCF79CFA00218520FCF725
:104AF00098FA10219020FCF794FA4FF4C0619220AC
:104B0000FCF78FFA40F233110720FCF78AFA83E4AE
:104B100089488088A0F5A84108397DD14FF480717B
:104B20000120FCF77EFA4FF4E0610220FCF779FAED
:104B300041F230010320FCF774FA00210420FCF755
:104B400070FA40F207210820FCF76BFA00210920D7
:104B5000FCF767FA00210A20FCF763FA00210C2019
:104B6000FCF75FFA00210D20FCF75BFA00210F2013
:104B7000FCF757FA142005F047F841F2B061102015
:104B8000FCF74FFA01211120FCF74BFA0121172005
:104B9000FCF747FA4FF49C711220FCF742FA4FF4ED
:104BA00000611320FCF73DFA09212920FCF739FAAE
:104BB00009212A20FCF735FA0021A420FCF731FA5C
:104BC00000215020FCF72DFAEF215120FCF729FAA3
:104BD00000215220FCF725FA40F23F115320FCF748
:104BE00020FA4FF41C516020FCF71BFA01216120D0
:104BF000FCF717FA00216A20FCF713FA0021802045
:104C0000FCF70FFA00218120FCF70BFA002182202B
:104C1000FCF707FA002100E024E08320FCF701FA0A
:104C200000218420FCF7FDF900218520FCF7F9F92B
:104C300013219020FCF7F5F900219220FCF7F1F9FF
:104C400003219320FCF7EDF94FF488719520FCF7D0
:104C5000E8F940F273110720FCF7E3F9322004F081
:104C6000D3FFB8E434488088A0F5A851053965D150
:104C70000720FCF7D6F9322004F0C6FF4FF48E71FE
:104C80001220FCF7CEF90121A420FCF7CAF90F216C
:104C90000820FCF7C6F908210A20FCF7C2F9082110
:104CA0000D20FCF7BEF940F207713020FCF7B9F98E
:104CB00007213120FCF7B5F940F203613220FCF7FF
:104CC000B0F94FF4E0613320FCF7ABF940F2022178
:104CD0003420FCF7A6F902213520FCF7A2F941F6B1
:104CE0000F713620FCF79DF940F207713720FCF771
:104CF00098F900213820FCF794F900213920FCF7BD
:104D000090F940F207713A20FCF78BF900213B2023
:104D1000FCF787F907213C20FCF783F900213D20AF
:104D2000FCF77FF9322004F06FFF01210720FCF728
:104D300078F90121172002E0BA080020AEE0FCF764
:104D400070F9322004F060FF4FF4BD511020FCF7E1
:104D500068F940F217211120FCF763F94FF48F71C5
:104D60001220FCF75EF94FF470611320FCF759F93B
:104D700000212A20FCF755F90A212920FCF751F9D6
:104D80004FF49F711220FCF74CF900215020FCF7E2
:104D900048F9EF215120FCF744F900215220FCF79B
:104DA00040F940F23F115320FCF73BF94FF41C51FE
:104DB0006020FCF736F901216120FCF732F900216F
:104DC0006A20FCF72EF900218020FCF72AF9002147
:104DD0008120FCF726F900218220FCF722F900212E
:104DE0008320FCF71EF900218420FCF71AF900212A
:104DF0008520FCF716F913219020FCF712F94FF4E7
:104E000040719220FCF70DF905219320FCF709F978
:104E100000219520FCF705F900219720FCF701F906
:104E200000219820FCF7FDF84FF480710120FCF779
:104E3000F8F84FF4E0610220FCF7F3F841F2380192
:104E40000320FCF7EEF800210420FCF7EAF800212B
:104E50000C20FCF7E6F800210F20FCF7E2F8002117
:104E60002020FCF7DEF800212120FCF7DAF82121D0
:104E70000720FCF7D6F8142004F0C6FE61210720B5
:104E8000FCF7CFF8142004F0BFFE40F273110720A6
:104E9000FCF7C7F8142004F0B7FE97E4FE488088BA
:104EA000A0F5354105397DD10846FCF7BAF8002157
:104EB0000846FCF7B6F800210846FCF7B2F80021D6
:104EC0000846FCF7AEF80121A420FCF7AAF814204C
:104ED00004F09AFE4FF41C516020FCF7A2F840F257
:104EE00002210820FCF79DF84FF405713020FCF7F3
:104EF00098F843F215713120FCF793F840F2046101
:104F00003220FCF78EF840F616613320FCF789F862
:104F100042F211213420FCF784F84FF4A8513520D7
:104F2000FCF77FF848F207513620FCF77AF841F297
:104F300007413720FCF775F841F203413820FCF7B0
:104F400070F820213920FCF76CF81A219020FCF72A
:104F500068F800211020FCF764F807211120FCF705
:104F600060F800211220FCF75CF800211320FCF708
:104F700058F8142004F048FE4FF4E6611020FCF7C6
:104F800050F840F237111120FCF74BF8142004F0D0
:104F90003BFE4FF4DC711220FCF743F8142004F0C0
:104FA00033FE00E083E04FF470611320FCF739F822
:104FB00080212A20FCF735F848212920FCF731F818
:104FC000142004F021FE4FF480710120FCF729F831
:104FD0004FF4E0610220FCF724F841F2380103208D
:104FE000FCF71FF840F202210820FCF71AF8002114
:104FF0000A20FCF716F800210C20FCF712F800211B
:105000000D20FCF70EF830210E20FCF70AF80021E5
:105010005020FCF706F8EF215120FCF702F80021A0
:105020005220FBF7FEFF40F23F115320FBF7F9FF40
:105030004FF41C516020FBF7F4FF01216120FBF7C6
:10504000F0FF00216A20FBF7ECFF11219020FBF715
:10505000E8FF4FF4C0619220FBF7E3FF40F202410A
:105060009320FBF7DEFF02219420FBF7DAFF1420E8
:1050700004F0CAFD01210720FBF7D3FF142004F040
:10508000C3FD61210720FBF7CCFF40F2731107201D
:10509000FBF7C7FF00212020FBF7C3FF00212120E1
:1050A000FBF7BFFF22210020FBF7BBFF10E37A488C
:1050B0008088A0F5454105397DD10846FBF7B1FF51
:1050C00000210846FBF7ADFF142004F09DFD0021F0
:1050D0000846FBF7A6FF00210846FBF7A2FF0021C8
:1050E0000846FBF79EFF00210846FBF79AFF0121C7
:1050F000A420FBF796FF142004F086FD4FF41C510A
:105100006020FBF78EFF40F606010820FBF789FFC1
:1051100040F203713020FBF784FF01213120FBF7BF
:1051200080FF04213220FBF77CFF4FF48171332094
:10513000FBF777FF4FF440713420FBF772FF40F22A
:1051400003113520FBF76DFF1F213620FBF769FFA8
:1051500040F203713720FBF764FF01213820FBF791
:1051600060FF04213920FBF75CFF15219020FBF73D
:1051700058FF4FF482611020FBF753FF40F24721A4
:105180001120FBF74EFF4FF4DE711220FBF749FFB1
:105190004FF460611320FBF744FF782004F034FDE6
:1051A0004FF480710120FBF73CFF4FF400710220A7
:1051B000FBF737FF00E050E041F230010320FBF73E
:1051C00030FF08210A20FBF72CFF00210C20FBF701
:1051D00028FF20210E20FBF724FF00210F20FBF7E2
:1051E00020FF00212020FBF71CFF00212120FBF7DE
:1051F00018FF3D212A20FBF714FF142004F004FDC2
:105200002D212920FBF70DFF00215020FBF709FF7E
:105210004DF2EF015120FBF704FF00215220FBF774
:1052200000FF40F23F115320FBF7FBFE00216120FD
:10523000FBF7F7FE00216A20FBF7F3FE4FF4407105
:105240009220FBF7EEFE05219320FBF7EAFE4FF4D8
:1052500080710720FBF7E5FE3AE20F488088A0F551
:105260008A4131397ED101210020FBF7DAFE0A2084
:1052700004F0CAFC41F228611020FBF7D2FE0E2197
:105280001220FBF7CEFE40F639211320FBF7C9FEB2
:105290000A2004F0B9FC01E0BA08002040211120E6
:1052A000FBF7BFFE50211520FBF7BBFE0A2004F0E0
:1052B000ABFC1E211220FBF7B4FE0A2004F0A4FC74
:1052C0004FF4B1511020FBF7ACFE42F63921132008
:1052D000FBF7A7FE0A2004F097FC4FF48071012031
:1052E000FBF79FFE4FF440710220FBF79AFE41F25C
:1052F00038010320FBF795FE40F202210820FBF75E
:1053000090FE08210A20FBF78CFE00213020FBF7DD
:1053100088FE40F202413120FBF783FE4FF4837197
:105320003220FBF77EFE40F203513320FBF779FE7B
:105330004FF482713420FBF774FE40F201313520C6
:10534000FBF76FFE40F207713620FBF76AFE40F272
:1053500005313720FBF765FE4FF402713820FBF76B
:1053600060FE00E03EE040F60B713920FBF759FE8D
:1053700002214120FBF755FE4FF41C516020FBF742
:1053800050FE01216120FBF74CFE4FF40471902088
:10539000FBF747FE4FF485719220FBF742FE042194
:1053A0009320FBF73EFE4FF48071A020FBF739FEFF
:1053B00001210720FBF735FE21210720FBF731FEF5
:1053C00023210720FBF72DFE33210720FBF729FEC1
:1053D00040F233110720FBF724FE0021A020FBF749
:1053E00020FE75E1F7488088A0F58A4135397CD1E7
:1053F00030211520FBF715FE10219A20FBF711FE36
:1054000020211120FBF70DFE43F228411020FBF76D
:1054100008FE02211220FBF704FE41F2380113209E
:10542000FBF7FFFD282004F0EFFB12210846FBF7F5
:10543000F8FD282004F0E8FB43F220411020FBF7A0
:10544000F0FD43F238011320FBF7EBFD462004F09A
:10545000DBFB00213020FBF7E4FD40F2024131206C
:10546000FBF7DFFD40F207313220FBF7DAFD4FF4A6
:1054700041713320FBF7D5FD04213420FBF7D1FD2A
:1054800040F201413520FBF7CCFD40F20771362098
:10549000FBF7C7FD40F205313720FBF7C2FD4FF4A3
:1054A000C2613820FBF7BDFD4FF4C2613920FBF724
:1054B000B8FD4FF480710120FBF7B3FD4FF440714C
:1054C0000220FBF7AEFD41F230010320FBF7A9FDFE
:1054D00040F608010820FBF7A4FD08210A20FBF78D
:1054E000A0FD4FF41C51602000E033E0FBF799FD74
:1054F00001216120FBF795FD4FF49F719020FBF790
:1055000090FD4FF480719220FBF78BFD4FF480717A
:105510009320FBF786FD4FF44051A020FBF781FD5F
:105520001021A320FBF77DFD01210720FBF779FD6A
:1055300021210720FBF775FD23210720FBF771FDD3
:1055400033210720FBF76DFD40F233110720FBF7F5
:1055500068FDBDE09B488088A0F5C8516339F8D14B
:10556000E220FBF745FD1D20FBF74BFD0220FBF77A
:1055700048FD0420FBF745FD642004F01AFBE02001
:10558000FBF736FD0120FBF73CFD0A2004F03CFB55
:10559000E020FBF72DFD0320FBF733FD0C2004F08A
:1055A00033FB0120FBF724FD0A2004F02DFBE6204D
:1055B000FBF71EFD2F20FBF724FDFF20FBF721FD4D
:1055C000FF20FBF71EFDB020FBF712FD2020FBF7AC
:1055D00018FD0020FBF715FD0320FBF712FD40F23C
:1055E0001F30FBF70EFD0120FBF70BFD40F2DF1033
:1055F000FBF707FD0020FBF704FDB420FBF7F8FCE8
:105600000420FBF7FEFC40F21F40FBF7FAFC0020F1
:10561000FBF7F7FC2E20FBF7F4FC0020FBF7F1FC76
:105620000020FBF7EEFC0020FBF7EBFC0020FBF773
:10563000E8FCB620FBF7DCFC0220FBF7E2FC4FF4B1
:105640000370FBF7DEFC0020FBF7DBFC1720FBF709
:10565000D8FC1520FBF7D5FC0020FBF7D2FC00207E
:10566000FBF7CFFCF020FBF7C3FC0320FBF7C9FCE2
:105670002920FBF7BDFCD020FBF7BAFC0020FBF78C
:10568000C0FCBE20FBF7B4FC0520FBF7BAFCFE20F3
:10569000FBF7B7FC0120FBF7B4FC0020FBF7B1FCE3
:1056A0000020FBF7AEFC0020FBF7ABFCB820FBF7BB
:1056B0009FFC0320FBF7A5FC0120FBF7A2FCBA200E
:1056C000FBF796FC0120FBF79CFC6420FCF703F938
:1056D0000020FCF738F901203B4908604FF6FF70C5
:1056E000FCF720FB21B000BD2DE9FC4F05460E461E
:1056F00017469846DDF82C900020019031488088AC
:10570000A0F5D041043929D12E488079012825D12E
:10571000AB4635462B480088C01B401E86B2474624
:1057200028480088A0EB0B00401E1FFA80F80020DC
:10573000244988712A2048812B20888143463A4693
:1057400031462846CDF80090FFF7CEFF01201D49D5
:1057500088712B2048812A2088811DE0781B401CFD
:1057600080B20190344615E021462846FBF787FCBD
:10577000FBF769FC4FF0000A07E04FF0D840A0F8B3
:1057800080900AF101001FFA80FA01988245F4DB4B
:10579000601C84B24445E7DDBDE8FC8F2DE9F84F7D
:1057A00007460D4690469946DDF828B0A8EB07005D
:1057B000401C1FFA80FAA9EB0500401C80B2009043
:1057C000002419E0BA080020BC824042281981B2A6
:1057D0003846FBF754FCFBF736FC002608E004FBD8
:1057E0000A603BF81000F749088006F1010086B214
:1057F0005645F4DB601C84B200988442E6DBBDE8C9
:10580000F88F2DE9FF4F84B081468A46002003902F
:1058100002900698A0EB09050798A0EB0A06CDF8C0
:105820000490CDF800A0002D01DD012705E00DB9A1
:10583000002702E04FF0FF376D42002E02DD4FF0EF
:10584000010806E016B94FF0000802E04FF0FF38FB
:105850007642B54201DD2C4600E034464FF0000BA5
:1058600021E0009A91B2019A90B2FBF764FF03988D
:10587000284403900298304402900398A04205DD2A
:105880000398001B03900198384401900298A042AD
:1058900005DD0298001B02900098404400900BF137
:1058A00001001FFA80FB601C8345DADD08B0BDE80B
:1058B000F08FF0B504460D4616461F462B4632467D
:1058C00029462046FFF79DFF3B46224629462046B3
:1058D000FFF797FF3B46324639462046FFF791FFD8
:1058E0003B46324629463046FFF78BFFF0BD2DE997
:1058F000F04306460F469046002445460320A0EBA1
:1059000048093CE07A1B91B2321990B2FBF713FFC1
:105910003A1B91B2721990B2FBF70DFF3A1991B28E
:10592000721990B2FBF707FF7A1991B2321990B24F
:10593000FBF701FF7A1991B2321B90B2FBF7FBFE25
:105940003A1991B2721B90B2FBF7F5FE7A1B91B235
:10595000321B90B2FBF7EFFE3A1B91B2721B90B272
:10596000FBF7E9FE641CB9F1000F03DAA000801D0B
:10597000814404E0601B80000A3081446D1EAC420B
:10598000C0DDBDE8F0832DE9F84F80460E4617468E
:105990001C46B3462046E31704EB5373DB10214645
:1059A0004FEAE47C04EB5C7C4FEAEC0CB4EBCC0CEF
:1059B00002D04FF0010C01E04FF0000C634422468E
:1059C00004EBD27C4FEA6C0C03FB0CF3DBB20093CC
:1059D000A7F12000C7B2002556E00C2C07D107EB39
:1059E0004700794901EB800010F8059013E0102C76
:1059F00005D1764800EB071010F805900BE0182C45
:105A000007D107EBC700724901EB800010F8059041
:105A100001E0BDE8F88F4FF0000A2FE019F0800F89
:105A200006D06C48028831464046FBF792FE07E0FC
:105A30000A9828B96848028831464046FBF789FE33
:105A40004FEA49604FEA1069701C86B2634840888B
:105A5000B04200DCDDE7A6EB0B00A0420AD15E46B7
:105A600008F101001FFA80F85C480088404500DC1E
:105A7000CFE706E00AF1010000F0FF0ABAF1080FD3
:105A8000CCDB00BF681CC5B200988542A5DB00BF17
:105A9000BFE710B50246012000E050430B00A1F122
:105AA0000104E1B2F9D110BD2DE9FF4F81B00746E5
:105AB00091461E460E9D4FF0000A002439E0301B2F
:105AC000401EC1B20A20FFF7E4FFB9FBF0F00A2143
:105AD000B0FBF1F201FB1208BAF1000F16D1701EF3
